{
  "_format": "hh-sol-artifact-1",
  "contractName": "ClaimVote",
  "sourceName": "contracts/ClaimVote.sol",
  "abi": [
    {
      "inputs": [],
      "stateMutability": "nonpayable",
      "type": "constructor"
    },
    {
      "inputs": [],
      "name": "InvalidMessageFormat",
      "type": "error"
    },
    {
      "inputs": [],
      "name": "InvalidPoolLength",
      "type": "error"
    },
    {
      "inputs": [],
      "name": "InvalidSignature",
      "type": "error"
    },
    {
      "inputs": [],
      "name": "NotOwner",
      "type": "error"
    },
    {
      "inputs": [],
      "name": "WeightSumMismatch",
      "type": "error"
    },
    {
      "anonymous": false,
      "inputs": [
        {
          "indexed": true,
          "internalType": "bytes32",
          "name": "publicKey",
          "type": "bytes32"
        },
        {
          "indexed": true,
          "internalType": "address",
          "name": "ethAddress",
          "type": "address"
        }
      ],
      "name": "AddressRegistered",
      "type": "event"
    },
    {
      "anonymous": false,
      "inputs": [
        {
          "indexed": true,
          "internalType": "address",
          "name": "previousOwner",
          "type": "address"
        },
        {
          "indexed": true,
          "internalType": "address",
          "name": "newOwner",
          "type": "address"
        }
      ],
      "name": "OwnershipTransferred",
      "type": "event"
    },
    {
      "anonymous": false,
      "inputs": [
        {
          "indexed": true,
          "internalType": "bytes32",
          "name": "publicKey",
          "type": "bytes32"
        },
        {
          "components": [
            {
              "internalType": "address",
              "name": "poolAddress",
              "type": "address"
            },
            {
              "internalType": "uint256",
              "name": "weight",
              "type": "uint256"
            }
          ],
          "indexed": false,
          "internalType": "struct ClaimVote.Position[]",
          "name": "positions",
          "type": "tuple[]"
        }
      ],
      "name": "PositionsUpdated",
      "type": "event"
    },
    {
      "inputs": [
        {
          "internalType": "bytes32",
          "name": "publicKey",
          "type": "bytes32"
        }
      ],
      "name": "getPositions",
      "outputs": [
        {
          "components": [
            {
              "internalType": "address",
              "name": "poolAddress",
              "type": "address"
            },
            {
              "internalType": "uint256",
              "name": "weight",
              "type": "uint256"
            }
          ],
          "internalType": "struct ClaimVote.Position[]",
          "name": "",
          "type": "tuple[]"
        }
      ],
      "stateMutability": "view",
      "type": "function"
    },
    {
      "inputs": [
        {
          "internalType": "bytes32",
          "name": "",
          "type": "bytes32"
        }
      ],
      "name": "keyToAddress",
      "outputs": [
        {
          "internalType": "address",
          "name": "",
          "type": "address"
        }
      ],
      "stateMutability": "view",
      "type": "function"
    },
    {
      "inputs": [
        {
          "internalType": "bytes32",
          "name": "",
          "type": "bytes32"
        },
        {
          "internalType": "uint256",
          "name": "",
          "type": "uint256"
        }
      ],
      "name": "keyToPositions",
      "outputs": [
        {
          "internalType": "address",
          "name": "poolAddress",
          "type": "address"
        },
        {
          "internalType": "uint256",
          "name": "weight",
          "type": "uint256"
        }
      ],
      "stateMutability": "view",
      "type": "function"
    },
    {
      "inputs": [],
      "name": "owner",
      "outputs": [
        {
          "internalType": "address",
          "name": "",
          "type": "address"
        }
      ],
      "stateMutability": "view",
      "type": "function"
    },
    {
      "inputs": [
        {
          "internalType": "bytes32",
          "name": "publicKey",
          "type": "bytes32"
        },
        {
          "internalType": "address",
          "name": "ethAddress",
          "type": "address"
        },
        {
          "internalType": "bytes",
          "name": "ethSignature",
          "type": "bytes"
        },
        {
          "internalType": "bytes",
          "name": "ed25519Signature",
          "type": "bytes"
        }
      ],
      "name": "registerAddress",
      "outputs": [],
      "stateMutability": "nonpayable",
      "type": "function"
    },
    {
      "inputs": [
        {
          "internalType": "bytes32",
          "name": "publicKey",
          "type": "bytes32"
        },
        {
          "internalType": "address",
          "name": "ethAddress",
          "type": "address"
        }
      ],
      "name": "setAddressDirectly",
      "outputs": [],
      "stateMutability": "nonpayable",
      "type": "function"
    },
    {
      "inputs": [
        {
          "internalType": "bytes32",
          "name": "publicKey",
          "type": "bytes32"
        },
        {
          "components": [
            {
              "internalType": "address",
              "name": "poolAddress",
              "type": "address"
            },
            {
              "internalType": "uint256",
              "name": "weight",
              "type": "uint256"
            }
          ],
          "internalType": "struct ClaimVote.Position[]",
          "name": "positions",
          "type": "tuple[]"
        }
      ],
      "name": "setPositionsDirectly",
      "outputs": [],
      "stateMutability": "nonpayable",
      "type": "function"
    },
    {
      "inputs": [
        {
          "internalType": "address",
          "name": "newOwner",
          "type": "address"
        }
      ],
      "name": "transferOwnership",
      "outputs": [],
      "stateMutability": "nonpayable",
      "type": "function"
    },
    {
      "inputs": [
        {
          "internalType": "string",
          "name": "message",
          "type": "string"
        },
        {
          "internalType": "bytes",
          "name": "signature",
          "type": "bytes"
        },
        {
          "internalType": "bytes32",
          "name": "publicKey",
          "type": "bytes32"
        }
      ],
      "name": "updatePositions",
      "outputs": [],
      "stateMutability": "nonpayable",
      "type": "function"
    }
  ],
  "bytecode": "0x608060405234801561001057600080fd5b50600280546001600160a01b0319163317905561169f806100326000396000f3fe608060405234801561001057600080fd5b50600436106100935760003560e01c806398f5ba521161006657806398f5ba5214610119578063ba3e4fd71461012c578063daeca9441461014c578063e72ba3fa1461017e578063f2fde38b1461019157600080fd5b8063100085981461009857806362fd3121146100ad5780636878627b146100c05780638da5cb5b14610106575b600080fd5b6100ab6100a63660046111f8565b6101a4565b005b6100ab6100bb366004611284565b6103ef565b6100e96100ce366004611303565b6000602081905290815260409020546001600160a01b031681565b6040516001600160a01b0390911681526020015b60405180910390f35b6002546100e9906001600160a01b031681565b6100ab61012736600461131c565b610552565b61013f61013a366004611303565b61061d565b6040516100fd919061134c565b61015f61015a366004611397565b6106a5565b604080516001600160a01b0390931683526020830191909152016100fd565b6100ab61018c3660046113b9565b6106eb565b6100ab61019f36600461142d565b61087b565b6000866040516020016101b991815260200190565b604051602081830303815290604052805190602001209050600061022a826040517f19457468657265756d205369676e6564204d6573736167653a0a3332000000006020820152603c8101829052600090605c01604051602081830303815290604052805190602001209050919050565b90506041851461024d57604051638baa579f60e01b815260040160405180910390fd5b600061028f8288888080601f01602080910402602001604051908101604052809392919081815260200183838082843760009201919091525061094192505050565b9050876001600160a01b0316816001600160a01b03161415806102b957506001600160a01b038116155b156102d757604051638baa579f60e01b815260040160405180910390fd5b6040805160608a901b6bffffffffffffffffffffffff19166020808301919091528251601481840301815260349092018352815191012090851461032e57604051638baa579f60e01b815260040160405180910390fd5b600061033d602082888a611451565b6103469161147b565b9050600061035860406020898b611451565b6103619161147b565b905061036f838d8484610a0f565b61038c57604051638baa579f60e01b815260040160405180910390fd5b60008c81526020819052604080822080546001600160a01b0319166001600160a01b038f16908117909155905190918e917f2cda763a9d7ae9241f22e221947f65e31e7cf58d79ff18e3badd72acf4be14899190a3505050505050505050505050565b6002546001600160a01b031633146104225760405162461bcd60e51b815260040161041990611499565b60405180910390fd5b6000805b8281101561046957838382818110610440576104406114bc565b905060400201602001358261045591906114e8565b915080610461816114fb565b915050610426565b50806127101461048c57604051630240887f60e31b815260040160405180910390fd5b60008481526001602052604081206104a39161114c565b60005b828110156105115760008581526001602052604090208484838181106104ce576104ce6114bc565b8354600181018555600094855260209094206040909102929092019260020290910190506104fc8282611514565b50508080610509906114fb565b9150506104a6565b50837fa3f25223b5f0be2cca6d1f72197ba1f7bb3d6c4e9ec7ce8d72796eef4968c77a848460405161054492919061154a565b60405180910390a250505050565b6002546001600160a01b0316331461057c5760405162461bcd60e51b815260040161041990611499565b6001600160a01b0381166105c45760405162461bcd60e51b815260206004820152600f60248201526e496e76616c6964206164647265737360881b6044820152606401610419565b60008281526020819052604080822080546001600160a01b0319166001600160a01b0385169081179091559051909184917f2cda763a9d7ae9241f22e221947f65e31e7cf58d79ff18e3badd72acf4be14899190a35050565b606060016000838152602001908152602001600020805480602002602001604051908101604052809291908181526020016000905b8282101561069a576000848152602090819020604080518082019091526002850290910180546001600160a01b03168252600190810154828401529083529092019101610652565b505050509050919050565b600160205281600052604060002081815481106106c157600080fd5b6000918252602090912060029091020180546001909101546001600160a01b039091169250905082565b600085856040516106fd9291906115a3565b60408051918290039091209150831461072957604051638baa579f60e01b815260040160405180910390fd5b60006107386020828688611451565b6107419161147b565b90506000610753604060208789611451565b61075c9161147b565b905061076a83858484610a0f565b61078757604051638baa579f60e01b815260040160405180910390fd5b60006107938989610a95565b60008681526001602052604081209192506107ae919061114c565b60005b815181101561083757600086815260016020526040902082518390839081106107dc576107dc6114bc565b602090810291909101810151825460018082018555600094855293839020825160029092020180546001600160a01b0319166001600160a01b039092169190911781559101519101558061082f816114fb565b9150506107b1565b50847fa3f25223b5f0be2cca6d1f72197ba1f7bb3d6c4e9ec7ce8d72796eef4968c77a82604051610868919061134c565b60405180910390a2505050505050505050565b6002546001600160a01b031633146108a55760405162461bcd60e51b815260040161041990611499565b6001600160a01b0381166108ef5760405162461bcd60e51b815260206004820152601160248201527024b73b30b634b2103732bb9037bbb732b960791b6044820152606401610419565b600280546001600160a01b038381166001600160a01b0319831681179093556040519116919082907f8be0079c531659141344cd1fd0a4f28419497f9722a3daafe3b4186f6b6457e090600090a35050565b6000815160411461095457506000610a09565b60208201516040830151606084015160001a601b81101561097d5761097a601b826115b3565b90505b8060ff16601b1415801561099557508060ff16601c14155b156109a65760009350505050610a09565b60408051600081526020810180835288905260ff831691810191909152606081018490526080810183905260019060a0016020604051602081039080840390855afa1580156109f9573d6000803e3d6000fd5b5050506020604051035193505050505b92915050565b60405163869adcb960e01b81526004810185905260248101849052604481018390526064810182905260009061040290819063869adcb990608401602060405180830381865afa158015610a67573d6000803e3d6000fd5b505050506040513d601f19601f82011682018060405250810190610a8b91906115cc565b9695505050505050565b6060600083838080601f01602080910402602001604051908101604052809392919081815260200183838082843760009201829052508451949550939093039250610af69150505760405163772496b160e01b815260040160405180910390fd5b600160005b8251811015610b4f57828181518110610b1657610b166114bc565b01602001516001600160f81b031916603b60f81b03610b3d5781610b39816114fb565b9250505b80610b47816114fb565b915050610afb565b5060008167ffffffffffffffff811115610b6b57610b6b6115ee565b604051908082528060200260200182016040528015610bb057816020015b6040805180820190915260008082526020820152815260200190600190039081610b895790505b5090506000806000805b8651811015610c7957868181518110610bd557610bd56114bc565b01602001516001600160f81b031916603b60f81b03610c6757808303610c0e5760405163772496b160e01b815260040160405180910390fd5b6000610c1b888584610d74565b9050808686610c29816114fb565b975081518110610c3b57610c3b6114bc565b6020026020010181905250806020015183610c5691906114e8565b9250610c638260016114e8565b9350505b80610c71816114fb565b915050610bba565b508551821015610cd4576000610c9187848951610d74565b9050808585610c9f816114fb565b965081518110610cb157610cb16114bc565b6020026020010181905250806020015182610ccc91906114e8565b915050610d25565b8560018751610ce39190611604565b81518110610cf357610cf36114bc565b01602001516001600160f81b031916603b60f81b03610d255760405163772496b160e01b815260040160405180910390fd5b848314610d455760405163772496b160e01b815260040160405180910390fd5b8061271014610d6757604051630240887f60e31b815260040160405180910390fd5b5091979650505050505050565b6040805180820190915260008082526020820152600080845b84811015610dde57868181518110610da757610da76114bc565b01602001516001600160f81b031916600b60fa1b03610dcc5780925060019150610dde565b80610dd6816114fb565b915050610d8d565b50801580610deb57508482145b80610dff5750610dfc600185611604565b82145b15610e1d5760405163772496b160e01b815260040160405180910390fd5b6040518060400160405280610e33888886610e62565b6001600160a01b03168152602001610e5688610e508660016114e8565b88611053565b90529695505050505050565b6000610e6e8383611604565b602a14610e8e5760405163772496b160e01b815260040160405180910390fd5b838381518110610ea057610ea06114bc565b6020910101516001600160f81b031916600360fc1b141580610ef1575083610ec98460016114e8565b81518110610ed957610ed96114bc565b6020910101516001600160f81b031916600f60fb1b14155b15610f0f5760405163772496b160e01b815260040160405180910390fd5b600080610f1d8560026114e8565b90505b8381101561104a576000868281518110610f3c57610f3c6114bc565b016020015160f81c9050600060308210801590610f5d575060398260ff1611155b15610f7757610f6d603083611617565b60ff169050610fe0565b60418260ff1610158015610f8f575060468260ff1611155b15610f9f57610f6d603783611617565b60618260ff1610158015610fb7575060668260ff1611155b15610fc757610f6d605783611617565b60405163772496b160e01b815260040160405180910390fd5b6010610ff3826001600160a01b03611604565b610ffd9190611630565b84111561101d5760405163772496b160e01b815260040160405180910390fd5b80611029856010611652565b61103391906114e8565b935050508080611042906114fb565b915050610f20565b50949350505050565b60008183106110755760405163772496b160e01b815260040160405180910390fd5b825b82811015611144576000858281518110611093576110936114bc565b016020015160f81c905060308110806110af575060398160ff16115b156110cd5760405163772496b160e01b815260040160405180910390fd5b60006110da603083611617565b60ff169050600a6110ed82600019611604565b6110f79190611630565b8411156111175760405163772496b160e01b815260040160405180910390fd5b8061112385600a611652565b61112d91906114e8565b93505050808061113c906114fb565b915050611077565b509392505050565b508054600082556002029060005260206000209081019061116d9190611170565b50565b5b808211156111965780546001600160a01b031916815560006001820155600201611171565b5090565b6001600160a01b038116811461116d57600080fd5b60008083601f8401126111c157600080fd5b50813567ffffffffffffffff8111156111d957600080fd5b6020830191508360208285010111156111f157600080fd5b9250929050565b6000806000806000806080878903121561121157600080fd5b8635955060208701356112238161119a565b9450604087013567ffffffffffffffff8082111561124057600080fd5b61124c8a838b016111af565b9096509450606089013591508082111561126557600080fd5b5061127289828a016111af565b979a9699509497509295939492505050565b60008060006040848603121561129957600080fd5b83359250602084013567ffffffffffffffff808211156112b857600080fd5b818601915086601f8301126112cc57600080fd5b8135818111156112db57600080fd5b8760208260061b85010111156112f057600080fd5b6020830194508093505050509250925092565b60006020828403121561131557600080fd5b5035919050565b6000806040838503121561132f57600080fd5b8235915060208301356113418161119a565b809150509250929050565b602080825282518282018190526000919060409081850190868401855b82811015610d6757815180516001600160a01b03168552860151868501529284019290850190600101611369565b600080604083850312156113aa57600080fd5b50508035926020909101359150565b6000806000806000606086880312156113d157600080fd5b853567ffffffffffffffff808211156113e957600080fd5b6113f589838a016111af565b9097509550602088013591508082111561140e57600080fd5b5061141b888289016111af565b96999598509660400135949350505050565b60006020828403121561143f57600080fd5b813561144a8161119a565b9392505050565b6000808585111561146157600080fd5b8386111561146e57600080fd5b5050820193919092039150565b80356020831015610a0957600019602084900360031b1b1692915050565b6020808252600990820152682737ba1037bbb732b960b91b604082015260600190565b634e487b7160e01b600052603260045260246000fd5b634e487b7160e01b600052601160045260246000fd5b80820180821115610a0957610a096114d2565b60006001820161150d5761150d6114d2565b5060010190565b813561151f8161119a565b81546001600160a01b0319166001600160a01b03919091161781556020919091013560019190910155565b6020808252818101839052600090604080840186845b878110156115965781356115738161119a565b6001600160a01b0316835281850135858401529183019190830190600101611560565b5090979650505050505050565b8183823760009101908152919050565b60ff8181168382160190811115610a0957610a096114d2565b6000602082840312156115de57600080fd5b8151801515811461144a57600080fd5b634e487b7160e01b600052604160045260246000fd5b81810381811115610a0957610a096114d2565b60ff8281168282160390811115610a0957610a096114d2565b60008261164d57634e487b7160e01b600052601260045260246000fd5b500490565b8082028115828204841417610a0957610a096114d256fea2646970667358221220c0fc871406801a567d671172d4b0f980e54bab90c5d900fd1785ca21dca6419264736f6c63430008140033",
  "linkReferences": {},
  "deployedLinkReferences": {}
}