{
  "_format": "hh-sol-artifact-1",
  "contractName": "SeventySevenV1",
  "sourceName": "contracts/SeventySevenV1.sol",
  "abi": [
    {
      "inputs": [],
      "stateMutability": "nonpayable",
      "type": "constructor"
    },
    {
      "inputs": [],
      "name": "InvalidMessageFormat",
      "type": "error"
    },
    {
      "inputs": [],
      "name": "InvalidPoolLength",
      "type": "error"
    },
    {
      "inputs": [],
      "name": "InvalidSignature",
      "type": "error"
    },
    {
      "inputs": [],
      "name": "WeightSumMismatch",
      "type": "error"
    },
    {
      "anonymous": false,
      "inputs": [
        {
          "indexed": true,
          "internalType": "bytes32",
          "name": "publicKey",
          "type": "bytes32"
        },
        {
          "indexed": true,
          "internalType": "address",
          "name": "ethAddress",
          "type": "address"
        }
      ],
      "name": "AddressRegistered",
      "type": "event"
    },
    {
      "anonymous": false,
      "inputs": [
        {
          "indexed": true,
          "internalType": "bytes32",
          "name": "publicKey",
          "type": "bytes32"
        },
        {
          "components": [
            {
              "internalType": "address",
              "name": "poolAddress",
              "type": "address"
            },
            {
              "internalType": "uint256",
              "name": "weight",
              "type": "uint256"
            }
          ],
          "indexed": false,
          "internalType": "struct SeventySevenV1.Position[]",
          "name": "positions",
          "type": "tuple[]"
        }
      ],
      "name": "PositionsUpdated",
      "type": "event"
    },
    {
      "inputs": [
        {
          "internalType": "address",
          "name": "",
          "type": "address"
        }
      ],
      "name": "addressToKey",
      "outputs": [
        {
          "internalType": "bytes32",
          "name": "",
          "type": "bytes32"
        }
      ],
      "stateMutability": "view",
      "type": "function"
    },
    {
      "inputs": [
        {
          "internalType": "bytes32",
          "name": "publicKey",
          "type": "bytes32"
        }
      ],
      "name": "getPositions",
      "outputs": [
        {
          "components": [
            {
              "internalType": "address",
              "name": "poolAddress",
              "type": "address"
            },
            {
              "internalType": "uint256",
              "name": "weight",
              "type": "uint256"
            }
          ],
          "internalType": "struct SeventySevenV1.Position[]",
          "name": "",
          "type": "tuple[]"
        }
      ],
      "stateMutability": "view",
      "type": "function"
    },
    {
      "inputs": [
        {
          "internalType": "bytes32",
          "name": "",
          "type": "bytes32"
        }
      ],
      "name": "keyToAddress",
      "outputs": [
        {
          "internalType": "address",
          "name": "",
          "type": "address"
        }
      ],
      "stateMutability": "view",
      "type": "function"
    },
    {
      "inputs": [
        {
          "internalType": "bytes32",
          "name": "",
          "type": "bytes32"
        },
        {
          "internalType": "uint256",
          "name": "",
          "type": "uint256"
        }
      ],
      "name": "keyToPositions",
      "outputs": [
        {
          "internalType": "address",
          "name": "poolAddress",
          "type": "address"
        },
        {
          "internalType": "uint256",
          "name": "weight",
          "type": "uint256"
        }
      ],
      "stateMutability": "view",
      "type": "function"
    },
    {
      "inputs": [
        {
          "internalType": "bytes32",
          "name": "publicKey",
          "type": "bytes32"
        },
        {
          "internalType": "address",
          "name": "ethAddress",
          "type": "address"
        },
        {
          "internalType": "bytes",
          "name": "ethSignature",
          "type": "bytes"
        },
        {
          "internalType": "bytes",
          "name": "ed25519Signature",
          "type": "bytes"
        }
      ],
      "name": "registerAddress",
      "outputs": [],
      "stateMutability": "nonpayable",
      "type": "function"
    },
    {
      "inputs": [
        {
          "internalType": "string",
          "name": "message",
          "type": "string"
        },
        {
          "internalType": "bytes",
          "name": "signature",
          "type": "bytes"
        },
        {
          "internalType": "bytes32",
          "name": "publicKey",
          "type": "bytes32"
        }
      ],
      "name": "updatePositions",
      "outputs": [],
      "stateMutability": "nonpayable",
      "type": "function"
    }
  ],
  "bytecode": "0x60808060405234601557611046908161001b8239f35b600080fdfe6080604052600436101561001257600080fd5b60003560e01c80631000859814610077578063574363c8146100725780636878627b1461006d578063ba3e4fd714610068578063daeca944146100635763e72ba3fa1461005e57600080fd5b610591565b610534565b610462565b6103df565b6103a1565b346103585760803660031901126103585760043561009361035d565b9060443567ffffffffffffffff8111610358576100b4903690600401610373565b60649391933567ffffffffffffffff8111610358576100d7903690600401610373565b60a085905260206080529490916100ee60406106d2565b6100fc60805160a0206108f4565b906041810361033e5761011a92610114913691610749565b90610957565b6001600160a01b038381169591168086148015919061034f575b5061033e576040516bffffffffffffffffffffffff19606085901b16602082019081526014825290610167603482610716565b5190206040820361033e57828561019a61018e8561019461018e6101a0986101a49a610790565b906107af565b9461079e565b92610a09565b1590565b61033e5761026882916101d16101c4846000526000602052604060002090565b546001600160a01b031690565b6001600160a01b03811680151590879082610333575b50506102ee575b506001600160a01b038116600090815260016020526040902054801515806102e4575b610290575b5061024e8161022f856000526000602052604060002090565b80546001600160a01b0319166001600160a01b03909216919091179055565b6001600160a01b0316600090815260016020526040902090565b557f2cda763a9d7ae9241f22e221947f65e31e7cf58d79ff18e3badd72acf4be1489600080a3005b806102ba6102aa6000936000526000602052604060002090565b80546001600160a01b0319169055565b7f2cda763a9d7ae9241f22e221947f65e31e7cf58d79ff18e3badd72acf4be14898280a385610216565b5083811415610211565b6001600160a01b03166000908152600160205260408120556000837f2cda763a9d7ae9241f22e221947f65e31e7cf58d79ff18e3badd72acf4be14898280a3856101ee565b1415905086886101e7565b638baa579f60e01b60005260046000fd5b90501586610134565b600080fd5b602435906001600160a01b038216820361035857565b9181601f840112156103585782359167ffffffffffffffff8311610358576020838186019501011161035857565b34610358576020366003190112610358576004356001600160a01b038116908190036103585760005260016020526020604060002054604051908152f35b34610358576020366003190112610358576004356000526000602052602060018060a01b0360406000205416604051908152f35b602060408183019282815284518094520192019060005b8181106104375750505090565b825180516001600160a01b03168552602090810151818601526040909401939092019160010161042a565b346103585760203660031901126103585760043560005260026020526040600020805461048e816107cc565b9161049c6040519384610716565b818352602083019060005260206000206000915b8383106104c957604051806104c58782610413565b0390f35b600260206001926040516104dc816106fa565b848060a01b03865416815284860154838201528152019201920191906104b0565b634e487b7160e01b600052603260045260246000fd5b805482101561052f5760005260206000209060011b0190600090565b6104fd565b346103585760403660031901126103585760043560243590600052600260205260406000209081548110156103585761056c91610513565b508054600190910154604080516001600160a01b039093168352602083019190915290f35b346103585760603660031901126103585760043567ffffffffffffffff8111610358576105c2903690600401610373565b9060243567ffffffffffffffff8111610358576105e3903690600401610373565b9290604435936105f4368486610749565b602081519101206040820361033e57828661019a61018e8561019461018e6101a09861061f9a610790565b61033e5761062c91610b6d565b610648610643836000526002602052604060002090565b61082b565b60005b81518110156106855760019061067f61066e856000526002602052604060002090565b6106788386610878565b519061088c565b0161064b565b506106b77fa3f25223b5f0be2cca6d1f72197ba1f7bb3d6c4e9ec7ce8d72796eef4968c77a9160405191829182610413565b0390a2005b634e487b7160e01b600052604160045260246000fd5b601f80199101166080016080811067ffffffffffffffff8211176106f557604052565b6106bc565b6040810190811067ffffffffffffffff8211176106f557604052565b90601f8019910116810190811067ffffffffffffffff8211176106f557604052565b60405190610747604083610716565b565b92919267ffffffffffffffff82116106f55760405191610773601f8201601f191660200184610716565b829481845281830111610358578281602093846000960137010152565b906020116103585790602090565b906040116103585760200190602090565b3590602081106107bd575090565b6000199060200360031b1b1690565b67ffffffffffffffff81116106f55760051b60200190565b634e487b7160e01b600052601160045260246000fd5b908160041b918083046010149015171561081057565b6107e4565b90600a820291808304600a149015171561081057565b805490600081558161083b575050565b6001600160ff1b03821682036108105760005260206000209060011b8101905b818110610866575050565b6000808255600182015560020161085b565b805182101561052f5760209160051b010190565b8054680100000000000000008110156106f5576108ae91600182018155610513565b9190916108de57805182546001600160a01b0319166001600160a01b039190911617825560019060200151910155565b634e487b7160e01b600052600060045260246000fd5b60405160208101917f19457468657265756d205369676e6564204d6573736167653a0a3332000000008352603c820152603c8152610933605c82610716565b51902090565b60ff601b9116019060ff821161081057565b6040513d6000823e3d90fd5b906041815103610a025760009160208201519260606040840151930151901a90601b82106109f2575b60ff8216601b81141590816109e6575b506109dd576109c4600093602095604051948594859094939260ff6060936080840197845216602083015260408201520152565b838052039060015afa156109d85760005190565b61094b565b50505050600090565b601c9150141538610990565b906109fc90610939565b90610980565b5050600090565b9291906040519363869adcb960e01b855260048501526024840152604483015260648201526020816084816104025afa9081156109d857600091610a4b575090565b6020813d602011610a82575b81610a6460209383610716565b81010312610a7e5751908115158203610a7b575090565b80fd5b5080fd5b3d9150610a57565b90815181101561052f570160200190565b60001981146108105760010190565b60405190610ab7826106fa565b60006020838281520152565b90610acd826107cc565b610ada6040519182610716565b8281528092610aeb601f19916107cc565b019060005b828110610afc57505050565b602090610b07610aaa565b82828501015201610af0565b906001820180921161081057565b906002820180921161081057565b9190820180921161081057565b60001981019190821161081057565b6001600160a01b039081039190821161081057565b9190820391821161081057565b610b78913691610749565b90815115610c7657600160005b8351811015610be057603b60f81b610bbe610bb1610ba38488610a8a565b516001600160f81b03191690565b6001600160f81b03191690565b14610bcc575b600101610b85565b90610bd8600191610a9b565b919050610bc4565b5090610beb82610ac3565b60009182918291825b8751811015610c8757603b60f81b610c12610bb1610ba3848c610a8a565b14610c20575b600101610bf4565b929093838214610c76576020610c3a85610c62948b610d29565b610c59610c4689610a9b565b9882610c528289610878565b5286610878565b50015190610b2f565b926001610c6e84610b13565b939050610c18565b63772496b160e01b60005260046000fd5b5095909492918151808210600014610cef5750610cad82602092610ccc95945191610d29565b610c59610cb987610a9b565b9682610cc5828b610878565b5288610878565b915b03610c765761271003610cde5790565b630240887f60e31b60005260046000fd5b91610d139150610ba3610bb191610d0d603b60f89997991b95610b3c565b90610a8a565b03610cce5763772496b160e01b60005260046000fd5b91610d32610aaa565b506000926000835b838110610daf575b50158015610da6575b8015610d95575b610c7657610d6d610d6785610d739584610e16565b94610b13565b90610f91565b610d8d610d7e610738565b6001600160a01b039093168352565b602082015290565b50610d9f82610b3c565b8414610d52565b50828414610d4b565b600b60fa1b610dc4610bb1610ba38487610a8a565b14610dd157600101610d3a565b94506001905038610d42565b60ff6056199116019060ff821161081057565b60ff6036199116019060ff821161081057565b60ff602f199116019060ff821161081057565b919091602a610e258484610b60565b03610c7657600360fc1b6001600160f81b0319610e45610ba38685610a8a565b1614801590610f65575b610c765790610e5f600093610b21565b915b818310610e77575050506001600160a01b031690565b909192610e90610e8a610ba38685610a8a565b60f81c90565b600060ff8216603081101580610f5a575b15610ef1575050610eb4610eba91610e03565b60ff1690565b905b610ece610ec883610b4b565b60041c90565b8111610c7657600191610ee3610ee8926107fa565b610b2f565b93019190610e61565b604181101580610f4f575b15610f15575050610eb4610f0f91610df0565b90610ebc565b60618110159081610f43575b5015610f345750610eb4610f0f91610ddd565b63772496b160e01b8152600490fd5b60669150111538610f21565b506046811115610efc565b506039811115610ea1565b50600f60fb1b6001600160f81b0319610f89610ba3610f8387610b13565b85610a8a565b161415610e4f565b6000929182811015610c765791905b818310610fad5750505090565b909192610fc0610e8a610ba38685610a8a565b60ff811660308110908115611005575b50610c7657610eb4610fe191610e03565b90600a8219048111610c7657600191610ee3610ffc92610815565b93019190610fa0565b603991501138610fd056fea2646970667358221220e0018fbe0d7129745ec77b1fa75e33cea2989514478d0724c4f40390f63dbe9e64736f6c634300081c0033",
  "linkReferences": {},
  "deployedLinkReferences": {}
}